:04000000FEEF3FF0E0
:10060000000095906BEC03F0899AAA0E35EC03F08C
:100610000F6A0F50010FD96EDA6ADF505FEC03F0FA
:10062000060E0E6E130E0D6EAE0EE82EFED70D2EBC
:10063000FCD70E2EFAD70F2A090E0F6422EF03F013
:1006400024EF03F009EF03F08C90898A0B0E0E6EF5
:10065000260E0D6E5E0EE82EFED70D2EFCD70E2E4A
:10066000FAD704EF03F0FEEF3FF00B6E0BC0C9FFAB
:10067000C7A03DEF03F03FEF03F038EF03F0C9CF21
:100680000CF0A10E0C18D8A448EF03F04AEF03F0C9
:100690004BEF03F08C801200EA0EF66E060EF76E3A
:1006A000000EF86E00EE01F010EE0AF00900F5CF32
:1006B000EEFFE550E150FAE1000101EF03F00B6EAF
:1006C0000BC0C9FF9EA667EF03F069EF03F062EF6E
:1006D00003F09E96120094969488949A929A200E13
:1006E000C66EC79EC78C898A12003F065B4F666D37
:0406F0007D077F6F94
:047FFC004CEF03F053
:00000001FF
